:400000000080002011000000510B0000510B000008B5044B1A6803F53F5302331A6000F0B7FD00BFFA46004010B5054C237833B9044B13B10448AFF300800123237010BD0B
:40004000E081FF1F000000008C420000084B10B51BB108490848AFF300800848036803B910BD074B002BFBD0BDE81040184700BF00000000E481FF1F8C420000C880FF1F36
:400080000000000038B51B4CD4F8903154F82350D4F8940103F062FE0146284603F0B2FE154903F063FF4FF0864103F0A3FD03F0F9FFC0B200F0EAFED4F890310F4954F8E2
:4000C000230003F09FFE4FF0864103F093FD03F0E9FFC0B200F0DAFED4F890310133C4F89031642B02D10022C4F8902100F05EFE38BD00BFFC81FF1F00F04E4500004842D8
:4001000008B5054A92F8983183F0010382F8983100F044FF08BD00BFFC81FF1F38B501F07FF9044610F01E0F06D00021012001F00FF90B4801F0A4F804F0200404F0FF0586
:4001400054B101F067F9074C20700021084601F0FFF8204601F094F8002DE0D138BD00BF90420000CC83FF1F10B504460021084601F0EEF8206801F083F810BD10B5C4B2EA
:40018000204600F05FFD204600F068FD204600F071FD204600F07AFD10BD00BF38B505460E4BD3F89C4100F047FE00F019FF10F0800F05D0094AD2F89C310133C2F89C3136
:4001C000074B1B7813B10120FFF7D8FF034BD3F89C311B1BAB42E8DB38BD00BFFC81FF1FCD83FF1F38B505460C4BD3F89C4100F0F7FE10F0800F05D0084AD2F89C31013342
:40020000C2F89C3100F0B8FD0020FFF7B7FF034BD3F89C311B1BAB42E9DB38BDFC81FF1F10B50A3825282CD8DFE800F0282B2B2B2B2B2B2B2B2B2B2B2B2B2B2B2B2B2B2B01
:400240002B2B1B2B2B2B2B2B2B2B2B2B2B2B2B1713242E2001F0ECF810BD2D2001F0E8F810BD202001F0E4F810BD202001F0E0F8013400E00024022CF7DD10BD0A2001F0DA
:40028000D7F810BD08B520380F2826D8DFE800F0172525252525252525252525250F081EFA20FFF77BFF2E20FFF7BAFF08BD40F2EE20FFF773FF2D20FFF7B2FF08BDFA20D2
:4002C000FFF790FF2020FFF7ABFF08BD40F2EE20FFF788FF2F20FFF7A3FF08BD38B5044600F0C4FE00F07CFE10F0800F05D0114AD2F89C310133C2F89C31204600F064FA53
:4003000005460A20FFF78CFF002403E0285DFFF7B9FF0134284603F0A3FF8442F6DB0A20FFF77EFF0020FFF729FF0022014BC3F89C2138BDFC81FF1F2DE9F04387B000AF3E
:40034000804600F093FE00F04BFE10F0800F05D01E4AD2F89C310133C2F89C31404603F07FFF064683000A3323F00703ADEB030DE94600251CE018F8050000F025FA01465C
:4003800049F82500381D03F063FF002407E007F11803234413F8140CFFF774FF0134381D03F05EFF8442F2DB2F20FFF76BFF0135B542E0DB0020FFF7E1FE0022034BC3F8F0
:4003C0009C211C37BD46BDE8F08300BFFC81FF1F08B500F0B5FC28B10120FFF7CFFE00F02BFD08BD0020FFF7C9FE00F0C5FC08BD08B500F0C3FDB0B100F038FE00F0F0FD5C
:4004000010F0800F05D0084AD2F89C310133C2F89C31FA20FFF7C2FE0020FFF7AFFE0022014BC3F89C2108BDFC81FF1F08B500F0ADFDB8B100F01AFE00F0D2FD10F0800FC5
:4004400005D0094AD2F89C310133C2F89C3140F2EE20FFF7A3FE0020FFF790FE0022024BC3F89C2108BD00BFFC81FF1F08B5012001F0C6FBA0B101F0DBFB41F66313984252
:4004800005DC00F0FBFF0122064B1A7008BD41F66413984204DD0022024B1A7001F05EF808BD00BFCD83FF1F30B583B000F00EF9044647E000F00AF90546002001F046FD01
:4004C000FFF7D4FF312C01D12A2D03D02A2C18D1312D16D1032003F031FE024602AB43F8040D1C49086810601846FFF73DFE1A48FFF722FF012000F0D1FE012001F026FD6E
:4005000026E0322C01D12A2D03D02A2C1AD1322D18D1052003F012FE024602AB43F8040D0E4908681060898891801846FFF71CFE0B48FFF701FF012000F0B0FE012001F088
:4005400005FD05E0312CB5D02A2CB3D0322CB1D003B030BD9C420000A0420000A4420000AC4200000000000008B5012001F048FBC8B101F05DFB02F0BFFF0BA3D3E90023B5
:4005800003F04AF903F0E0FA094B93F898312BB903F088FD80B200F085FF08BD03F082FD80B200F085FF08BD9A99999999991F40FC81FF1F0000000008B562B600223C4BDD
:4005C000C3F8902115E0600002F096FF36A3D3E9002302F0F7FF0022364B03F01DF901F0FFFC334D03F0B0FA45F824000134C5F890412F4BD3F89041632CE4DD0024C3F8F5
:4006000090412D4800F0ACFC2C4801F091FC2C4801F0C6FC00F0B0FB00F0E8FE294800F013FF202000F0F0FE00F068FC204600F02DFC00F093FF41F64C5000F033FF41F640
:400640004C5000F035FF01F0BFFA01F0D1FA012001F07CFC00F06EFE2046FFF78FFD4FF47A7000F021FB184B1B7883B1002001F06DFCFFF7FBFE144C2078FFF72FFE00237C
:400680002370012000F00AFE012001F05FFCFFF79FFEFFF7ADFEFFF7C9FEFFF705FFFFF763FFE0E7AFF30080182D4454FB210940FC81FF1F000059408500000001010000F8
:4006C0001D010000B4420000CC83FF1F08B5002000F0DAFC052000F0E7FA00F0F5FC20B9012000F0D1FC232008BD00F0E5FC20B9012000F0C9FC392008BD00F0EDFC20B9F0
:40070000012000F0C1FC362008BD00F0EBFC20B9012000F0B9FC332008BD012000F0B4FC002000F0BDFC052000F0BEFA00F0CCFC20B9012000F0B4FC302008BD00F0BCFCDC
:4007400020B9012000F0ACFC382008BD00F0C4FC20B9012000F0A4FC352008BD00F0C2FC20B9012000F09CFC322008BD012000F097FC002000F0BEFC052000F095FA00F02D
:40078000A3FC20B9012000F0B5FC2A2008BD00F093FC20B9012000F0ADFC372008BD00F09BFC20B9012000F0A5FC342008BD00F099FC20B9012000F09DFC312008BD012058
:4007C00000F098FC7A2008BD08B5A0F13003092B03D8064A52F8230008BD03F049FD6138024B03EB8000806A08BD00BFCC80FF1FFEE700BFF0B40022174611E050F8276018
:40080000F3B226F0FF0608E001EB420511F812406D78A5550132013BDBB2002BF4D101371D2FEBD9F0BC70470C4B1B78DBB203F007010B4A11701B09013213702022094B54
:400840001A70022203F683031A70802280331A704422A3F28A231A70704700BFCF0100496E580040FD51004008B50A46002103F078FC08BD08B503F069FC08BD38B5002448
:40088000324B1C80502202331A70072202331A8018232F4A13704FF49C71023211800232137004222B492C48FFF7E4FF02222B4B1A7008224FF040231A70032103F5007303
:4008C0001970274B1B78DBB226490B70264B1A8041F25122023B1A8019250CE0234B1B7803F0010343EA440404F003044FF4F07001F066FB013D0DB1032CEFD115B9032008
:40090000FFF776FF1A4B4FF480721A8007221A70002218490A704820023108701A700222033B1A7004220A331A70134A137843F007031370013A137843F001031370013A8F
:40094000137843F08003137038BD00BF8040004086400040C8050048004100400043004008010049A146004022420040254200400440004006400040A2430040012814D8D8
:4009800010B44000C0B2094B53F820101A18147C0A7822430A700130C0B253F820201844017C13780B43137010BC7047A4430000012816D810B44000C0B20A4B53F82010A5
:4009C0001A18147C0A7822EA04020A700130C0B253F820201844017C137823EA0103137010BC7047A4430000012808D8044B03EB800252691844017F13780B431370704725
:400A0000A4430000012809D8054B03EB800252691844017F137823EA01031370704700BFA443000038B572B6334A137843F00403137000240BE0314863001A195100014464
:400A40000A46898C106AFFF70FFF0134E4B2062CF1D92B494FF09040FFF7CCFE0A24294B1C70294A137843F0020313701032137843F002031370254D2B7843F040032B70F4
:400A8000A2F58632513A137843F01003137022461F492048FFF7EEFE22461F491F48FFF7E9FE22461E491F48FFF7E4FE22461E491E48FFF7DFFE08221D491E48FFF7DAFE00
:400AC00022461D491D48FFF7D5FE1D4A137843F0080313701B4C61232370FFF7CFFE812323700122184B1A70FFF79EFE0E2229461648FFF7BFFE38BDE8460040A443000033
:400B0000780000488358004003500140A0430040840500480051004090050048C05100409C050048F0510040A805004810510040B405004822510040BC0500483051004015
:400B4000224300400048004004000840B043004008B503F0C7FA03680C2B00D1FEE7FEE708B5094B1A681044084BC31A802B02DC054B186005E003F0B5FA0C2303604FF05B
:400B8000FF32104608BD00BF5C81FF1FE083FF1F08B5104E104D16E029686B68AC68002204E051F8040B43F8040B0432A242F8D1E868002203E0002143F8041B0432824273
:400BC000F9D11035013E002EE6D103F091FAFFF7F3FCFEE701000000F046000008B5104A104B1A60104A136843F40073136000230AE0032B03D80D4A52F8231000E00C4946
:400C00000C4A42F8231001332F2BF2D90A4B1A780A4B1A70074A0A4B1A60FFF703FF08BD0004FA050CED00E014ED00E000000000510B00000080FF1FBC760040C080FF1F6E
:400C400008ED00E0044A137803F0FE0300F0010018431070704700BF00510040044A137803F0FD03400000F0020018431070704700510040044A137803F0DF03400100F0FF
:400C8000200018431070704700510040044A137803F0BF03800100F040001843107070470051004001BE704710B5044605E0084B186801F085F9A4F50044B4F5004FF6D840
:400CC000034B586800FB04F001F07AF910BD00BF6081FF1F08B5034B1B7A00FB03F001F06FF908BD6081FF1F70B504460E46074B1D681F2802D90020FFF7D4FF04F01F04A1
:400D0000103455F8240045F8246070BD08ED00E038B504460D46072902D90020FFF7C2FF1F2C02D90020FFF7BDFF04F01F0000F1604000F564406D01EDB2057038BD00BF64
:400D4000024B1878C0F34010704700BFC1510040084A137843F0010313701032137843F00103137002F64D32137843F001031370704700BFA3430040084A137803F0FE0384
:400D80001370A2F65D32137803F0FE0313701032137803F0FE031370704700BF004F0040014B1870704700BF034F0040014B1878704700BF034F0040014B1880704700BF24
:400DC000044F0040014B1880704700BF064F004008B5164A137803F0010313700232137803F0FC031370124B1A7802F0CF021A701A7842F030021A701A7802F0F0021A705F
:400E00001A7842F00F021A700A4A137843F00103137040F2AF40FFF7CFFF40F2AF40FFF7D1FF0820FFF7BCFF08BD00BF004F00400B4F0040014F004008B5054B1B7823B95C
:400E4000FFF7C6FF0122024B1A70FFF781FF08BDA483FF1F054A137843F0010313701032137843F001031370704700BFA8430040054B1A7802F0FD021A701A7800F00200A0
:400E800010431870704700BF20580040014B1870704700BF805B0040064B1B78C3F3810303F19243063393F82031DBB2024A1370704700BF205800400846004008B5064BA2
:400EC0001A7802F0F3021A701A7800F00C0010431870FFF7E1FF08BD2058004010B50024054B1C7001331C702046FFF7E7FF2046FFF7BEFF10BD00BF2058004008B5074B00
:400F00001B7823B9FFF7EAFF0122044B1A70FFF7A1FF6420FFF7BAFF08BD00BFA583FF1F024B1B68C3F88400704700BF08ED00E04001C0B2014B1870704700BF11E400E0A8
:400F40004FF40032014B1A60704700BF00E100E04FF40032014B1A60704700BF80E100E010B50446FFF7F4FF2046FFF7D9FF0720FFF7DEFFFFF7E4FF10BD00BF024B1878A5
:400F8000C0F30010704700BFC1510040024B1878C0F3C000704700BFC1510040024B1878C0F38000704700BF8C450040084A137843F0020313701032137843F002031370D7
:400FC00002F65932137843F001031370704700BFA3430040014B1870704700BF0F4F0040014B1878704700BF0F4F0040014B1880704700BF104F0040014B1880704700BF62
:40100000124F004008B5164A137803F0010313700232137803F0FC031370124B1A7802F0CF021A701A7842F030021A701A7802F0F0021A701A7842F00F021A700A4A1378BF
:4010400043F00103137045F6BF50FFF7CFFF45F6BF50FFF7D1FF0020FFF7BCFF08BD00BF0C4F0040174F00400D4F004008B5054B1B7823B9FFF7C6FF0122024B1A70FFF73F
:4010800095FF08BDA683FF1F044A137803F0FD03400000F0020018431070704730510040044A137803F0F703C00000F0080018431070704730510040024B1878C0F380104E
:4010C000704700BF31510040024B1878C0F34010704700BF31510040014B1878C009704731510040024B187800F00100704700BFF1510040044A137803F0EF03000100F00D
:4011000010001843107070473051004010B50B4C237803F09F032370237803F0F00323702378184340F0100020700120FFF7D2FD237803F0EF03237010BD00BF205100405D
:4011400038B505460E4C237843F020032370237803F0BF0323700020FFF7BCFD237803F0F003237023781D4345F0100525700120FFF7B0FD237803F0EF03237038BD00BF2E
:401180002051004070B5354B1A7802F08002D2B21A7033490A7802F0F00242F00F020A7001310A7802F0F0020A7001310A7802F0F0020A701A7802F0DF021A701A7842F04F
:4011C00040021A704FF4CA760020FFF783FD234D2B7843F010032B700120FFF77BFD214B1C78E4B22B7803F0EF032B700020FFF771FD04F00804E4B22B7843F010032B7030
:401200000120FFF767FD2B7803F0EF032B7014B90A20FFF75FFD013E0CB1002ED4D10F4A137803F0BF031370137803F08003DBB213700232137803F0F003137001321378E5
:4012400003F0F00343F00F0313700132137803F0F00343F00F03137070BD00BF20510040225100402151004010B50446FFF78AFF2009FFF765FF04F00F00FFF761FF10BD1B
:4012800038B505460078012404E0FFF7EDFF285D0134E4B20028F8D138BD00BF10B50446FFF770FF2009FFF731FF04F00F00FFF72DFF10BD08B52820FFF7F6FC0320FFF7E3
:4012C00025FF0520FFF7F0FC0320FFF71FFF0F20FFF7EAFC0320FFF719FF0120FFF7E4FC0220FFF713FF0520FFF7DEFC0620FFF7D5FF0E20FFF7D2FF2C20FFF7CFFF08201D
:40130000FFF7CCFF0120FFF7C9FF0C20FFF7C6FF0320FFF7C3FF0520FFF7C6FC08BD00BF08B50C20FFF7BAFF0122014B1A7008BDA783FF1F08B5054B5B7823B9FFF7BAFFE1
:401340000122024B5A70FFF7EBFF08BDA783FF1F08B5032819D8DFE800F002070D1381F08000FFF79BFF08BDA1F14000C0B2FFF795FF08BDA1F16C00C0B2FFF78FFF08BDFB
:40138000A1F12C00C0B2FFF789FF08BD7222084B1A702022033B1A700622A3F5B0731A70472210331A70002203F251131A7070478B65004010B500F00BFE04460A4A1378C9
:4013C00043F020031370033A137843F0100313700132137843F01003137000F0CDF8204600F0FAFD10BD00BF9B65004008B5054B1B7823B9FFF7CAFF0122024B1A70FFF703
:40140000D9FF08BDA983FF1F014B1870704700BF88650040014B1878704700BF48650040024B187800F07F00704700BF68650040034B1B7813F0040FFAD1024B18707047F2
:40144000696500404964004038B5074B1B782BB938BDFFF7EDFF0134A4B201E005460024285D0028F5D138BDA983FF1F024A137843F080031370704777650040024A13789D
:4014800003F07F031370704777650040014B1880704700BF0C6A0040014B1880704700BF8C6A0040014B1880704700BF4C6A0040014B1880704700BF6C6A0040014B18702D
:4014C000704700BF87650040014B1878704700BF67650040014B188880B27047AC6A004008B501E0FFF7F6FFFFF7EEFF10F0100FF8D108BD10B5174A137803F0C00343F00E
:40150000090313701F32137843F001031370124C237843F0010323704EF66020FFF7B6FF4EF66020FFF7B8FF41F29410FFF7BAFF41F29410FFF7BCFF0020FFF7BFFF00F011
:4015400047FD237843F01003237000F045FDFFF7C7FF10BD776500409765004008B5054B1B7823B9FFF7C6FF0122024B1A70FFF77DFF08BDAB83FF1F054A137843F00403D8
:4015800013701032137843F004031370704700BFA243004038B59DF81040651EEDB2032D51D8013809282ED8DFE800F0052D2D052D2D0F192D230F2B03D92548007840B2EC
:4015C00022E02448007840B21EE00F2B03D92248007840B218E02148007840B214E00F2B03D91F48007840B20EE01E48007840B20AE00F2B03D91C48007840B204E01B48B2
:40160000007840B200E0002001EB401101FB02F2D20B91B20D2B0BD8C3F10E0192B20A4191B2621E124800EB82020133937005E0631E0F4A02EB83030F229A70013C0C4BC2
:4016400023F8241038BD0020FFF72CFB38BD00BF180100491C010049190100491D0100491A0100491E0100491B0100491F010049AC83FF1FF8B5074600F0AAFC06460D4D86
:401680002B7843F003032B700B4C237843F0030323700A4B1F700320FFF71CFB2B7803F0FC032B70237803F0FC032370304600F093FCF8BDF8460040F946004092580040C0
:4016C000F8B504460022C04B1A7401285BD13822BE4B1A70042202331A70062201331A70002501331D7001331D703F2201331A7002331D7001331D7001331D7001260A33BD
:401700001E70502203F527631A700A2701331F702C2201331A7001331D70442203331A70482201331A7001331E7002331E70112201331A70192201331A70972201331A70A8
:401740005220FFF797FF5822A14B1A7001331D7005331E7001331E7001331D7001331F70284600F0B3FA43F233329A4B1A603146052000F0CFFA3146252000F04FFB964980
:401780001D20FFF7B1FA022C5DD138228F4B1A70042202331A70062201331A70002501331D7001331D703F2201331A7002331D7001331D7001331D7001260A331E705022F8
:4017C00003F527631A70272201331A702C2201331A7001331D70552203331A705A2201331A70052701331F7002331E70112201331A70192201331A70972201331A70442021
:40180000FFF738FF5822724B1A7001331D7005331F70022201331A7001331D7001331D70284600F053FA4FF47A426A4B1A603146384600F06FFA3146252000F0EFFA674962
:401840001D20FFF751FA032C5DD138225F4B1A70042202331A70062201331A70002501331D7001331D703F2201331A7002331D7001331D7001331D7001260A331E705022C6
:4018800003F527631A70272201331A702C2201331A7001331D70552203331A705A2201331A70052701331F7002331E70112201331A70192201331A70972201331A70442060
:4018C000FFF7D8FE5822424B1A7001331D7005331F70022201331A7001331D7001331D70284600F0F3F94FF47A423A4B1A603146384600F00FFA3146252000F08FFA3849B3
:401900001D20FFF7F1F9042C5DD138222F4B1A70042202331A70062201331A70002401331C7001331C703F2201331A7002331C7001331C7001331C7001250A331D7050229D
:4019400003F527631A70272201331A702C2201331A7001331C70552203331A705A2201331A70052601331E7002331D70112201331A70192201331A70972201331A704420A3
:40198000FFF778FE5822124B1A7001331C7005331E70022201331A7001331C7001331C70204600F093F94FF47A420A4B1A602946304600F0AFF92946252000F02FFA094926
:4019C0001D20FFF791F9F8BDAC83FF1F004E004094580040D483FF1F9D1C0000A11C0000A51C0000A91C00002DE9F04182B0394D4FF0010885F80080374E002474741020F8
:401A000000F076F9102000F0F7F907211D20FFF77FF90427314B1F7001331C7007331C702F4A137843F0180313702E4B1C7003F2F5231C7001331C700A22A3F209331A70EE
:401A400001331C7002331C705B2205331A705E2201331A7004331C701422A3F68C231A70CDF8008010234FF4004248F6F0510220FFF790FD0223009310234FF4004249F2D1
:401A8000DA012046FFF786FD0323009310234FF4004249F2DA012046FFF77CFD009710234FF4004249F2DA012046FFF773FD2B78013B06EB83039A780B4B1A702B78013BB8
:401AC00036F82320094B1A802878FFF7F9FD02B0BDE8F0817081FF1FAC83FF1F96580040075B0040935800400E4E00400C4E004070B500F06DFA06462A4B1B782A4B1A78CF
:401B000042F001021A701A7842F010021A7010331A7842F001021A701A7842F010021A70224D2B7843F002032B70214C237843F0020323701F4A137843F003031370032007
:401B4000FFF7C8F82B7803F0FD032B70237803F0FD032370184A137843F0060313707A22164B1A70164A137843F0010313701032137843F0010313700F3A137843F00103F3
:401B800013701032137843F0010313704FF000530C4A1360A2F5C0721360304600F01CFA70BD00BF7081FF1FAA430040F8460040F946004091580040775800408258004091
:401BC000A143004080E200E008B5084B9B7C4BB9064BDB7C13F0FF0F01D1FFF705FF0122024B9A74FFF784FF08BD00BFAC83FF1F024A137843F0010313707047004E004031
:401C0000094B1B7C13F0FF0F03D0074B5B7CDBB203E0064B1B7803F00103012B01D00028EED01846704700BFAC83FF1F014E0040154B1B7803F00303012B07D8134B1888D9
:401C4000023B1B889BB243EA004013E0022B0AD10E4B1888023B1B7843EA00430C4A107843EA002006E00B4B188883B2074A108843EA0040084B1B7C13F0FF0F02D0002215
:401C8000054B5A74704700BF144E0040124E0040114E0040104E0040AC83FF1F704700BF704700BF704700BF704700BF10B5002404E02046FEF7A6FE0134E4B2012CF8D957
:401CC000FF22014B1A7010BD7181FF1F10B50446FFF7ECFF2046FEF787FE014B1C7010BD7181FF1F014B188880B2704780400040034B1A7800F0F80010431870704700BF9D
:401D000082400040024B187800F00700704700BF8240004070B505460E46FFF7F3FF0446FFF7E0FFA84256D02B4B1B7803F0010294B900B185B938B9284B1D80284A137841
:401D400003F0BF03137070BD254A137843F040031370224B1D8070BD22B3002321490B7001240F310C7004310B700C390B7803F07F030B701A4B1B7813F0080F00D08DB986
:401D8000194B18800721013B1970164B1B7813F0010FFAD110490B7803F0FE030B700021104B19700C4B1B7813F0010F0DD00E4B1D800EB1032200E001220A4B1A70094B2E
:401DC0001B7813F0010FFAD170BD044B1D8002490B7813430B7070BDA243004080400040824000400140004002400040014B188880B2704700410040034B1A7800F0F80045
:401E000010431870704700BF02410040024B187800F00700704700BF0241004070B505460E46FFF7F3FF0446FFF7E0FFA84256D02B4B1B7803F0010294B900B185B938B9FA
:401E4000284B1D80284A137803F0BF03137070BD254A137843F040031370224B1D8070BD22B3002321490B70012413310C7004390B7008390B7803F07F030B701A4B1B78A0
:401E800013F0080F00D08DB9194B18800721013B1970164B1B7813F0010FFAD110490B7803F0FE030B700021104B19700C4B1B7813F0010F0DD00E4B1D800EB1032200E053
:401EC00001220A4B1A70094B1B7813F0010FFAD170BD044B1D8002490B7813430B7070BDA143004000410040024100400140004002400040014B1B68D866704708ED00E072
:401F00004001C0B2014B1870704700BF0BE400E04FF40062014B1A60704700BF00E100E04FF40062014B1A60704700BF80E100E010B50446FFF7F4FF2046FFF7DBFF0720BC
:401F4000FFF7DEFFFFF7E4FF10BD00BF10B50446054B1878FF2801D0FEF72AFD2046FEF70DFD014B1C7010BD7281FF1F014B1B681864704708ED00E04001C0B2014B1870AD
:401F8000704700BF00E400E00122014B1A60704700E100E00122014B1A60704780E100E010B50446FFF7F6FF2046FFF7DFFF0720FFF7E2FFFFF7E8FF10BD00BF000000000A
:401FC0000230800803D000BF01380046FCD17047EFF3108072B6704780F31088704700BF30B5214A21F00043934287B01BDD1F4A934205DD02460B4601F030F907B030BDA1
:4020000002AA00F035F800F0030001281ED0022811D0DDE9042300B3DDE9020100F040FA01F10041EAE7002300930022002300F053FF07B030BD01230093DDE90201DDE904
:40204000042300F049FF01F10041D7E7DDE90423DDE9020100F024FAD0E70124DDE90201009400F039FFC9E7FB21E93FFFFFEF7F2DE9F04F944C21F00047A7428FB040F3A3
:4020800081801446914A0E46974226DC84A3D3E90023002940F3A08101F0E0F88C4B80469F42894600F083807FA3D3E9002301F0D5F802460B464046C4E90023494601F001
:4020C000CDF879A3D3E9002301F0C8F80125C4E9020128460FB0BDE8F08F7E4A974240F383807D4A974258DC3D15A5F21645A7EB05518B46824601F0FFFC01F0FDF980463F
:40210000894642464B4650465946CDE9088901F0A5F80022714B01F055FA8B46824601F0EBFC01F0E9F98046894642464B4650465946CDE90A8901F091F80022674B01F0E0
:4021400041FA00220023CDE90C0101F0A3FC002800F06A81002340464946002201F09AFC002814BF012302235D480221019000912A46214608A800F0B7FA002EC0F24A81A7
:40218000054606E0C2E9000100250024C2E90245002528460FB0BDE8F08F02460B4601F05DF80025C4E90201C4E90001F1E740A3D3E9002301F052F83FA3D3E9002306464D
:4021C0000F4601F04BF802460B463046C4E90023394601F043F838A3D3E9002301F03EF80125C4E90201D4E700F02CFF34A3D3E900238046894601F0E5F90022394B01F08E
:402200002FF801F079FC054601F076F924A3D3E90023CDE9040101F0D5F902460B464046494601F01BF820A3D3E9002382468B46DDE9040101F0C6F91F2DCDE9020155DCA8
:40224000294B6A1E53F822309F424FD002460B465046594601F002F802460B4681468846C4E900234A4643465046594600F0F6FFDDE9022300F0F2FF02460B46002EC4E99B
:40228000022386DA4A4608F1004301F1004184E80C00E160A0606D427BE700BFAFF3008000004054FB21F93F3163621A61B4D03D0000601A61B4D03D7370032E8A19A33BA4
:4022C00083C8C96D305FE43FFB21E93F7BD90240FB21F93FFB213941FFFFEF7F00007041704400000000E03FF0430000DDE902235046594600F0B2FF3F15C1F30A53FB1A89
:40230000102B81468846C4E90001ABDD58A3D3E90023DDE9040101F055F98046894602460B465046594600F099FFCDE9060102460B465046594600F091FF42464B4600F0B4
:402340008DFF4DA3D3E9002380468946DDE9040101F038F942464B4600F080FF02460B46CDE90201DDE9060100F078FF0B4602468846C1F30A517F1A312F8146C4E900236C
:4023800072DD3FA3D3E90023DDE9040101F01AF98046894602460B46DDE9060100F05EFF02460B4682468B46DDE9060100F056FF42464B4600F052FF33A3D3E900238046DD
:4023C0008946DDE9040101F0FDF842464B4600F045FFCDE9020139E700F042FF2E4B80469F42894622D02AA3D3E9002300F038FF02460B464046C4E90023494600F02EFFB7
:4024000023A3D3E9002300F02BFF4FF0FF35C4E90201BEE66268E36802F1004203F1004345426260E360B4E603239DE610A3D3E9002300F015FF10A3D3E9002306460F46FD
:4024400000F00EFF02460B463046C4E90023394600F004FF08A3D3E9002300F001FF4FF0FF35C4E9020194E6DDE906ABFAE600BF0000601A61B4D03D7370032E8A19A33BB0
:402480000000002E8A19A33BC14920259A837B393163621A61B4D03DFB21F93F000000002DE9F04F21F00046B6F1795F85B00C4692469B4605466BDA01F01EFB002800F0AA
:4024C000E7802A4623462846214601F07BF874A3D3E900238046894601F074F872A3D3E9002300F0BDFE42464B4601F06BF870A3D3E9002300F0B2FE42464B4601F062F879
:402500006DA3D3E9002300F0ABFE42464B4601F059F86BA3D3E9002300F0A0FE42464B4601F050F868A3D3E9002300F099FE42464B4601F047F8CDE900010022644B404623
:40254000494601F03FF8DDE9002306460F464046494601F037F85246804689465B462846214601F02FF802460B464046494600F075FE02460B463046394600F06FFE0246E6
:402580000B460020534900F069FE05B0BDE8F08F02460B4601F016F841A3D3E900238046894601F00FF840A3D3E9002300F058FE42464B4601F006F83DA3D3E9002300F037
:4025C0004DFE42464B4600F0FDFF3BA3D3E9002300F046FE42464B4600F0F4FF38A3D3E9002300F03BFE42464B4600F0EBFF36A3D3E9002300F034FE4B46424600F0E2FF04
:40260000354BCDE900019E4297DD344B00229E4238DCA6F5001300202E4916461F4600F01DFECDE902010022294B4046494600F0C9FF32463B4600F011FEDDE90023064620
:402640000F464046494600F0BDFF5246804689465B462846214600F0B5FF02460B464046494600F0FBFD02460B463046394600F0F5FD02460B46DDE9020100F0EFFD05B004
:40268000BDE8F08F164B0026CDE90223154FCAE71049002005B0BDE8F08F00BFAFF30080D43888BEE9FAA8BDC4B1B4BD9EEE213EAD529C804F7E923E9015CB19A001FA3EC7
:4026C0007751C1166CC1563F4C5555555555A53F0000E03F0000F03F3233D33F0000E93F0000E73F0000D23F2DE9F04F794CADF51D7D1F460B93D31E84FB0354DB17C3EBBC
:40270000A403A69E744C23EAE37554F826406B1C26460994A3EB83037C1E0D95029402EBC3032D1B341904900A91089316D42C44013422AEA79F08E057F8250000F0DCFE84
:402740000135A542E6E9020108D0002DF4DA013500200021A542E6E90201F6D1099B002B2FDB099B74AADDF8089002EBC30B0DF5E47A029B002BC0F295810B9B0026C3EB73
:40278000090824AB03EBC808049B0027A3F1080524AB03EBC904F5E9022374E8020100F011FF02460B463046394600F059FD444506460F46EFD1EAE90267DA4509F101090B
:4027C000D7D1099B10A91D4603F18043023B9B001A1D0A440B440F920E939CAB03EBC503002D53E928672BDD9CAB03EBC504A83C0DF13C0A0DF5E47B0022384B30463946AE
:4028000000F0E0FE01F078F900F076FE0022344B8046894600F0D6FE02460B463046394600F01CFD01F068F974E802234AF8040F4946404600F014FD5C4506460F46DBD147
:40284000089C30463946224600F08AFC00224FF07F5306460F4600F0B5FE00F0F9FB0022204B00F0AFFE02460B463046394600F0F5FC0F46064601F03FF9814600F03CFE32
:4028800002460B463046394600F0E8FC002C06460F4640F3EE80681E10AB53F82030C4F1180243FA02F101FA02F29B1AC4F1170810AA42F82030894443FA08F8B8F1000FEF
:4028C0003DDD002D09F1010940F3D382002214460FA911E0ABAAAA2A784500000000703E0000704100002040C3F180700BB108600124013295420DDD51F8043F002CF3D0DF
:40290000C3F1FF13013203F57F4395420B604FF00104F1DC089B002B0DDD012B00F0B180022B08D16A1E10AB53F8223010A9C3F3150341F82230B8F1020F00F081800022C7
:4029400000233046394601F0A5F8002800F05B82099B05F1FF3B5B4510DC05F1804310AA013B0F9802EB8303002253F80419834242EA0102F9D1002A40F0B180099B10AA62
:40298000013B52F82330002B40F071820E9A012352F8041901330029FAD0E9186A1C8A420C914BDC0D990B985118DB0001F180410593A79B05440139E80003EB810A24ABB2
:4029C000D20003EB000B74AB13440193A2F10803069007934FF000095AF8040F00F08CFD029BEBE80201002B4FF000064FF000071BDB069B03EB0904079B09EB030824ABE3
:402A00001C449844049BA3F10805F5E9022374E8020100F0D7FD02460B463046394600F01FFC444506460F46EFD1019B09F10809E3E802670193059B9945CDD10C9DCCE68B
:402A400032463B460020B04900F008FC06460F46002C3FF474AF089A0020AB4900F080FB02460B463046394600F0F8FB06460F4665E710D16B1E10AA52F823304FEAE35879
:402A80001CE76A1E10AB53F8223010A9C3F3160341F822304FE700229C4B01F019F858B980464CE700260027EAE90267DA4509F101097FF45EAE84E6002D09F10109C8BF88
:402AC0004FF002083FF702AF32463B4600208E4900F0C4FB4FF0020806460F462FE7089A10AB53F82B30183ACDF81490CDF8048008926BB90BF18043013B10A901EB83031C
:402B000053F804190BF1FF3B183A0029F8D00892089A00207C4900F023FBBBF1000F04460D46C0F2B6814FEACB030DF5E87810AA02EB8B0608EB03090493043609F10807CA
:402B400056F8040D00F0D8FC22462B4600F03AFD002267E902016E4B2046294600F032FDB84504460D46EBD14B46CDF818B09B460DF5987ACDF808A0DDF824A04FF0000959
:402B8000BAF1000FC0F226815DA3D3E90023DFF884815D4600260027002403E0A14510DBF8E90223F5E8020100F00CFD02460B463046394600F054FB0134A24506460F4616
:402BC000ECDA029BABF1080B03EBC903C3E9006772AB5B4509F10109D2D1A69BDDF818B0DDF808A0032B00F28380DFE813F0D100950095000400BBF1000F40F35481049BE9
:402C0000CDF808B053449846D3E90067D34658E9029A32463B464846514600F021FB04460D4602460B464846514600F017FB32463B4600F015FBC8E9000168E90245C345B7
:402C400026462F46E3D1DA46DDF808B0BBF1010F40F32981049B0DF59C7B53449846D3E90067994659E902343046CDE902341A463946234600F0F4FA04460D4602460B4614
:402C8000DDE9020100F0EAFA32463B4600F0E8FAC9E9000169E90245CB4526462F46E1D100231D4608F1080850AC184678E90223294600F0D5FA444503460D46F5D1019A9A
:402CC000002A00F0D880DAF80440DAF80C200A9FDAF80010DAF8080005F1004504F1004402F100427D613B617C60FA603960B860059B03F007000DF51D7DBDE8F08F00BFC6
:402D000000000040FB21F93F0000F03F0000E03F0000703E8845000000242146049D0835554475E90223204600F09AFA55450446F7D1019B002B50D00A9F01F100450B4603
:402D4000DAE9000187E83000224600F087FABBF1000F03460D460DDD01241846FAE90223294600F07DFA0134A34503460D46F4DA019A0AB105F10045184629460A9BC3E93F
:402D80000201059B03F007000DF51D7DBDE8F08F00231C46049A0832924418467AE90223214600F05DFA0BF1FF3BBBF1FF3F03460C46F2D1019A0AB104F10044184621461D
:402DC0000A9BC3E90001059B03F007000DF51D7DBDE8F08F00260027F3E626460F4622460A9C0B46DAE90001C4E9006700F036FABBF1000F03460D46AEDC184629460A9B96
:402E0000C3E90201BDE7089B30465A423946CDF81490CDF8048000F0A3F900222C4B06460F4600F055FE002840D00022294B3046394600F0C7FB00F05FFE044600F05CFBFD
:402E40000022234B00F0BEFB0B4602463946304600F004FA00F050FE089B05F1010B1833089310AB43F8250043F82B4050E6012393E500244EE51846DAE90067DAE902237A
:402E800029460A9DC5E90067C5E90401C5E902232EE7A69B032B3FF62BAFDFE803F0151010020DF5987A00231D4608E73046394600F022FE10ABAB4643F8250028E6002411
:402EC00021460DF5987A34E700231C4672E700BF000070410000703E2DE9F04F21F00046B6F1795F85B00C4690469946054604DA00F002FE002800F085802A46234628465C
:402F0000214600F05FFB06460F4602460B462846214600F057FB3EA3D3E9002382468B463046394600F04EFB3BA3D3E9002300F095F932463B4600F045FB39A3D3E90023E9
:402F400000F08EF932463B4600F03CFB36A3D3E9002300F083F932463B4600F033FB34A3D3E9002300F07CF90E9BCDE900019BB30022334B4046494600F024FBDDE9002309
:402F8000CDE902015046594600F01CFB02460B46DDE9020100F062F932463B4600F012FB42464B4600F05AF923A3D3E9002306460F465046594600F005FB02460B463046A3
:402FC000394600F04DF902460B462846214600F045F905B0BDE8F08F02460B463046394600F0F0FA14A3D3E9002300F037F952465B4600F0E7FA2A46234600F031F905B0D7
:40300000BDE8F08F2846214605B0BDE8F08F00BF7CD5CF5A3AD9E53DEB9C2B8AE6E55A3E7DFEB157E31DC73ED561C119A0012A3FA6F810111111813F495555555555C53F78
:403040000000E03F21F00041704700BF00000000C1F30A522DE9F843A2F2FF36132E0B4604460D46884607461CDC002E3FDB3A4A864642FA06F901EA0902024317D034A331
:40308000D3E9002300F0ECF80022002300F02AFD20B1002D40DB28EA0905002738462946BDE8F883332E06DDB6F5806F2FD020461946BDE8F883A2F213424FF0FF3929FA4F
:4030C00002F910EA090FF2D021A3D3E9002300F0C7F80022002300F005FD0028DED0002D20DB454627EA090738462946D8E718A3D3E9002300F0B4F80022002300F0F2FCC9
:403100000028CBD0002D18DB00273D46C6E702460B4600F0A5F8CCE74FF4801343FA06F6B044B8E7142E10D00123C6F1340603FA06F6371928BF9844D3E725F00042074B34
:40314000224318BF1D460027A8E705F10108C8E79C7500883CE4377EFFFF0F000000F0BFF8B5C1F30A5604460D460B46174606BB21F00043034325D000222F4B00F022FA1E
:403180002E4A044697420D460B462ADBC1F30A56363E40F2FE723E44964228DC002E12DD23F0FF4323F4E00343EA065520462946F8BD40F2FF729642EBD102460B4600F005
:4031C0004FF8F8BDF8BD16F1350F1DDA4CF250339F420CDC14A1D1E9000122462B4600F031F811A3D3E9002300F0ECF9F8BD22460FA1D1E900012B4600F024F80CA3D3E918
:40320000002300F0DFF9F8BD23F0FF4323F4E003363643EA0655204629460022084B00F0D1F9F8BDAFF3008059F3F8C21F6EA5019C7500883CE4377E00005043B03CFFFFAC
:403240000000903C03F0004321F0004242EA0301704700BF81F0004102E000BF83F0004330B54FEA41044FEA430594EA050F08BF90EA020F1FBF54EA000C55EA020C7FEAA4
:40328000645C7FEA655C00F0E2804FEA5454D4EB5555B8BF6D420CDD2C4480EA020281EA030382EA000083EA010180EA020281EA0303362D88BF30BD11F0004F4FEA01311E
:4032C0004FF4801C4CEA113102D0404261EB410113F0004F4FEA03334CEA133302D0524263EB430394EA050F00F0A780A4F10104D5F1200E0DDB02FA0EFC22FA05F280188E
:4033000041F1000103FA0EF2801843FA05F359410EE0A5F120050EF1200E012A03FA0EFC28BF4CF0020C43FA05F3C01851EBE37101F0004507D54FF0000EDCF1000C7EEB7F
:4033400000006EEB0101B1F5801F1BD3B1F5001F0CD349085FEA30004FEA3C0C04F101044FEA445212F5800F80F09A80BCF1004F08BF5FEA500C50F1000041EB045141EA92
:40338000050130BD5FEA4C0C404141EB010111F4801FA4F10104E9D191F0000F04BF01460020B1FA81F308BF2033A3F10B03B3F120020CDA0C3208DD02F1140CC2F10C029A
:4033C00001FA0CF021FA02F10CE002F11402D8BFC2F1200C01FA02F120FA0CFCDCBF41EA0C019040E41AA2BF01EB0451294330BD6FEA04041F3C1CDA0C340EDC04F11404C8
:40340000C4F1200220FA04F001FA02F340EA030021FA04F345EA030130BDC4F10C04C4F1200220FA02F001FA04F340EA0300294630BD21FA04F0294630BD94F0000F83F4C0
:40344000801306BF81F480110134013D4EE77FEA645C18BF7FEA655C29D094EA050F08BF90EA020F05D054EA000C04BF1946104630BD91EA030F1EBF0021002030BD5FEADA
:40348000545C05D14000494128BF41F0004130BD14F580043CBF01F5801130BD01F0004545F0FE4141F470014FF0000030BD7FEA645C1ABF194610467FEA655C1CBF0B46F1
:4034C000024650EA013406BF52EA033591EA030F41F4002130BD00BF90F0000F04BF0021704730B54FF4806404F132044FF000054FF0000150E700BF90F0000F04BF0021FF
:40350000704730B54FF4806404F1320410F0004548BF40424FF000013EE700BF42004FEAE2014FEA31014FEA02701FBF12F07F4393F07F4F81F06051704792F0000F14BF07
:4035400093F07F4F704730B54FF4607401F0004521F0004120E700BF50EA010208BF704730B54FF000050AE050EA010208BF704730B511F0004502D5404261EB41014FF41B
:40358000806404F132045FEA915C3FF4DCAE4FF003025FEADC0C18BF03325FEADC0C18BF033202EBDC02C2F1200300FA03FC20FA02F001FA03FE40EA0E0021FA02F114440B
:4035C000C1E600BF70B54FF0FF0C4CF4E06C1CEA11541DBF1CEA135594EA0C0F95EA0C0F00F0DEF82C4481EA030621EA4C5123EA4C5350EA013518BF52EA033541F4801103
:4036000043F4801338D0A0FB02CE4FF00005E1FB02E506F00042E0FB03E54FF00006E1FB03569CF0000F18BF4EF0010EA4F1FF04B6F5007F64F5407404D25FEA4E0E6D411A
:4036400046EB060642EAC62141EA55514FEAC52040EA5E504FEACE2EB4F1FD0C88BFBCF5E06F1ED8BEF1004F08BF5FEA500E50F1000041EB045170BD06F0004646EA01014A
:4036800040EA020081EA0301B4EB5C04C2BFD4EB0C0541EA045170BD41F480114FF0000E013C00F3AB8014F1360FDEBF002001F0004170BDC4F10004203C35DA0C341BDC43
:4036C00004F11404C4F1200500FA05F320FA04F001FA05F240EA020001F0004221F0004110EBD37021FA04F642EB06015EEA430E08BF20EAD37070BDC4F10C04C4F1200540
:4037000000FA04F320FA05F001FA04F240EA020001F0004110EBD37041F100015EEA430E08BF20EAD37070BDC4F1200500FA05F24EEA020E20FA04F301FA05F243EA0203A7
:4037400021FA04F001F0004121FA04F220EA020000EBD3705EEA430E08BF20EAD37070BD94F0000F0FD101F00046400041EB010111F4801F08BF013CF7D041EA060195F0A5
:40378000000F18BF704703F00046520043EB030313F4801F08BF013DF7D043EA0603704794EA0C0F0CEA135518BF95EA0C0F0CD050EA410618BF52EA4306D1D181EA03011C
:4037C00001F000414FF0000070BD50EA410606BF1046194652EA430619D094EA0C0F02D150EA013613D195EA0C0F05D152EA03361CBF104619460AD181EA030101F0004110
:4038000041F0FE4141F470014FF0000070BD41F0FE4141F4780170BD70B54FF0FF0C4CF4E06C1CEA11541DBF1CEA135594EA0C0F95EA0C0F00F0A7F8A4EB050481EA030E35
:4038400052EA03354FEA013100F088804FEA03334FF0805545EA131343EA12634FEA022245EA111545EA10654FEA00260EF000419D4208BF964244F1FD0404F5407402D2CE
:403880005B084FEA3202B61A65EB03055B084FEA32024FF480104FF4002CB6EB020E75EB030E22BFB61A754640EA0C005B084FEA3202B6EB020E75EB030E22BFB61A7546DC
:4038C00040EA5C005B084FEA3202B6EB020E75EB030E22BFB61A754640EA9C005B084FEA3202B6EB020E75EB030E22BFB61A754640EADC0055EA060E18D04FEA051545EAFD
:4039000016754FEA06164FEAC30343EA52734FEAC2025FEA1C1CC0D111F4801F0BD141EA00014FF000004FF0004CB6E711F4801F04BF01430020B4F1FD0C88BFBCF5E06FD4
:403940003FF6AFAEB5EB030C04BFB6EB020C5FEA500C50F1000041EB045170BD0EF0004E4EEA113114EB5C04C2BFD4EB0C0541EA045170BD41F480114FF0000E013C90E617
:4039800045EA060E8DE60CEA135594EA0C0F08BF95EA0C0F3FF43BAF94EA0C0F0AD150EA01347FF434AF95EA0C0F7FF425AF104619462CE795EA0C0F06D152EA03353FF4E2
:4039C000FDAE1046194622E750EA410618BF52EA43067FF4C5AE50EA41047FF40DAF52EA43057FF4EBAE12E74FF0FF3C06E000BF4FF0010C02E000BF4FF0010C4DF804CDF6
:403A00004FEA410C7FEA6C5C4FEA430C18BF7FEA6C5C1BD001B050EA410C0CBF52EA430C91EA030F02BF90EA020F0020704710F1000F91EA030F58BF994208BF90422CBF03
:403A4000D8176FEAE37040F0010070474FEA410C7FEA6C5C02D150EA013C07D14FEA430C7FEA6C5CD6D152EA033CD3D05DF8040B704700BF8446104662468C4619466346F0
:403A800000E000BF01B5FFF7B7FF002848BF10F1000F01BD4DF808EDFFF7F4FF0CBF012000205DF808FB00BF4DF808EDFFF7EAFF34BF012000205DF808FB00BF4DF808ED24
:403AC000FFF7E0FF94BF012000205DF808FB00BF4DF808EDFFF7CEFF94BF012000205DF808FB00BF4DF808EDFFF7C4FF34BF012000205DF808FB00BF4FEA410212F50012CB
:403B000015D211D56FF47873B3EB625212D94FEAC12343F0004343EA505311F0004F23FA02F018BF404270474FF00000704750EA013005D111F0004008BF6FF000407047C6
:403B40004FF00000704700BF4FEA4102B2F1E04324BFB3F5001CDCF1FE5C0DD901F0004C4FEAC0024CEA5070B2F1004F40EB830008BF20F00100704711F0804F21D113F177
:403B80003872BCBF01F00040704741F480114FEA5252C2F11802C2F1200C10FA0CF320FA02F018BF40F001004FEAC1234FEAD32303FA0CFC40EA0C0023FA02F34FEA430374
:403BC000CCE77FEA625307D150EA01331EBF4FF0FE4040F44000704701F0004040F0FE4040F40000704700BF80F0004002E000BF81F0004142001FBF5FEA410392EA030FA2
:403C00007FEA226C7FEA236C6AD04FEA1262D2EB1363C1BFD218414048404140B8BF5B42192B88BF704710F0004F40F4000020F07F4018BF404211F0004F41F4000121F0EF
:403C40007F4118BF494292EA030F3FD0A2F1010241FA03FC10EB0C00C3F1200301FA03F100F0004302D5494260EB4000B0F5000F13D3B0F1807F06D340084FEA310102F10F
:403C80000102FE2A51D2B1F1004F40EBC25008BF20F0010040EA03007047490040EB000010F4000FA2F10102EDD1B0FA80FCACF1080CB2EB0C0200FA0CF0AABF00EBC25013
:403CC00052421843BCBFD0401843704792F0000F81F4000106BF80F400000132013BB5E74FEA41037FEA226C18BF7FEA236C21D092EA030F04D092F0000F08BF08467047FA
:403D000090EA010F1CBF0020704712F07F4F04D1400028BF40F00040704712F100723CBF00F50000704700F0004343F0FE4040F4000070477FEA226216BF08467FEA2363AA
:403D40000146420206BF5FEA412390EA010F40F4800070474FF0000304E000BF10F0004348BF40425FEA000C08BF704743F0964301464FF000001CE050EA010208BF704784
:403D80004FF000030AE000BF50EA010208BF704711F0004302D5404261EB41015FEA010C02BF84460146002043F0B64308BFA3F18053A3F50003BCFA8CF2083AA3EBC253DC
:403DC00010DB01FA02FC634400FA02FCC2F12002BCF1004F20FA02F243EB020008BF20F00100704702F1200201FA02FCC2F1200250EA4C0021FA02F243EB020008BF20EA29
:403E0000DC7070474FF0FF0C1CEAD0521EBF1CEAD15392EA0C0F93EA0C0F6FD01A4480EA010C400218BF5FEA41211ED04FF0006343EA501043EA5111A0FB01310CF000404A
:403E4000B1F5000F3EBF490041EAD3715B0040EA010062F17F02FD2A1DD8B3F1004F40EBC25008BF20F00100704790F0000F0CF0004C08BF49024CEA502040EA51207F3AC0
:403E8000C2BFD2F1FF0340EAC250704740F400004FF00003013A5DDC12F1190FDCBF00F000407047C2F10002410021FA02F1C2F1200200FA02FC5FEA310040F1000053EA79
:403EC0004C0308BF20EADC70704792F0000F00F0004C02BF400010F4000F013AF9D040EA0C0093F0000F01F0004C02BF490011F4000F013BF9D041EA0C018FE70CEAD153CA
:403F000092EA0C0F18BF93EA0C0F0AD030F0004C18BF31F0004CD8D180EA010000F00040704790F0000F17BF90F0004F084691F0000F91F0004F14D092EA0C0F01D1420283
:403F40000FD193EA0C0F03D14B0218BF084608D180EA010000F0004040F0FE4040F40000704740F0FE4040F4400070474FF0FF0C1CEAD0521EBF1CEAD15392EA0C0F93EA90
:403F80000C0F69D0A2EB030280EA010C49024FEA402037D04FF0805343EA111143EA10130CF000408B4238BF5B0042F17D024FF4000C8B4224BF5B1A40EA0C00B3EB510F53
:403FC00024BFA3EB510340EA5C00B3EB910F24BFA3EB910340EA9C00B3EBD10F24BFA3EBD10340EADC001B0118BF5FEA1C1CE0D1FD2A3FF650AF8B4240EBC25008BF20F043
:40400000010070470CF0004C4CEA50207F32C2BFD2F1FF0340EAC250704740F400004FF00003013A37E792F0000F00F0004C02BF400010F4000F013AF9D040EA0C0093F083
:40404000000F01F0004C02BF490011F4000F013BF9D041EA0C0195E70CEAD15392EA0C0F08D142027FF47DAF93EA0C0F7FF470AF084676E793EA0C0F04D14B023FF44CAFF3
:4040800008466EE730F0004C18BF31F0004CCAD130F000427FF45CAF31F000437FF43CAF5FE700BF42000ED2B2F1FE4F0BD34FF09E03B3EB126209D44FEA002343F00043DA
:4040C00023FA02F070474FF00000704712F1610F01D1420202D14FF0FF3070474FF00000704700BF014B1868704700BFD481FF1F0E4B70B51E460E4C0025E41AA410A5421F
:4041000004D056F8253098470135F8E700F0DEFA084B094C1E46E41AA4100025A54204D056F8253098470135F8E770BDD8460000D8460000D8460000E0460000024B0146D6
:40414000186800F017B800BFD481FF1F10B5431E0A44914204D011F8014B03F8014FF8E710BD03460244934202D003F8011BFAE77047000070B5CD1C25F0030508350C2DE1
:4041800038BF0C25002D064601DBA94202D90C23336046E000F078F8234B1C681A462146A1B10B685B1B0ED40B2B03D90B60CC18CD501EE08C420BBF63684B6813606360D6
:4041C00018BF0C4615E00C464968E9E7174C23681BB9304600F02CF820602946304600F027F8431C18D0C41C24F00304A0420DD12560304600F049F804F10B00231D20F090
:404200000700C31A0ED05A42E25070BD211A304600F00EF80130EBD10C233360304600F034F8002070BD00BFC883FF1FC483FF1F38B5064C0023054608462360FCF790FC02
:40424000431C02D1236803B12B6038BDD883FF1F034611F8012B03F8012B002AF9D17047034613F8012B002AFBD1181A01387047044B1B6803445B7803F00303012B08BF14
:4042800020307047D881FF1F7047704700000000554152542065727200000000534F5300736F73004245414D530000006265616D730000005374617274200A002D202D20E1
:4042C0002D202D202D0000002E202D202D202D202D0000002E202E202D202D202D0000002E202E202E202D202D0000002E202E202E202E202D0000002E202E202E202E2031
:404300002E0000002D202E202E202E202E0000002D202D202E202E202E0000002D202D202D202E202E0000002D202D202D202D202E0000002D202E202E202E002D202E200F
:404340002D202E002E202E202D202E002E202E202E202E002E202D202D202D002D202E202D0000002E202D202E202E002E202D202D202E002D202D202E202D002E202D20D9
:404380002E0000002E202E202E202D002D202E202E202D002D202E202D202D002D202D202E202E00FD510040585B00400D5100402443004008808000035B00402443004064
:4043C00040000000004F0040180040510040300000000140001000140140000800400140000A004C014000020050014020000000FB21F93FFB2109407CD91240FB21194087
:404400007A6A1F407CD92240BBFD2540FB2129403A462C407A6A2F405C4731407CD932409C6B3440BBFD3540DB8F3740FB2139401BB43A403A463C405AD83D407A6A3F4051
:404440004C7E40405C4741406C1042407CD942408CA243409C6B4440AC344540BBFD4540CBC64640DB8F4740EB584840FB21494083F9A200444E6E00FC291500D1572700FC
:40448000DD34F50062DBC0003C999500419043006351FE00BBDEAB00B761C5003A6E2400D24D42004906E00009EA2E001C92D100EB1DFE0029B11C00E83EA700F535820037
:4044C00044BB2E009CE98400B4267000417E5F00D6913900538339009CF439008B5F840028F9BD00F81F3B00DEFF97000F980500112FEF000A5A8B006D1F6D00CF7E36004E
:4045000009CB2700464FB7009E663F002DEA5F00BA277500E5EBC7003D7BF100F739070092528A00FB6BEA001FB15F00085D8D00300356007BFC4600F0AB6B0020BCCF00D8
:4045400036F49A00E3A91D005E619100081BE60085996500A0145F008D40680080D8FF0027734D0006063100CA561500C9A873007BE260006B8CC00002000000030000009D
:40458000040000000600000000000040FB21F93F000000002D44743E000000809846F83C0000006051CC783B00000080831BF0390000004020257A38000000802282E336BD
:4045C000000000001DF36935430000202020202020202020282828282820202020202020202020202020202020202088101010101010101010101010101010040404040416
:404600000404040404101010101010104141414141410101010101010101010101010101010101010101101010101010424242424242020202020202020202020202020254
:4046400002020202020210101010200000000000000000000000000000000000000000000000000000000000000000000000000000000000000000000000000000000000CE
:4046800000000000000000000000000000000000000000000000000000000000000000000000000000000000000000000000000000000000000000000000000000000000FA
:4046C000000000000000000000000000F8B500BFF8BC08BC9E4670474D000000DD0B0000F8B500BFF8BC08BC9E4670472900000000470000C880FF1F180100000002000096
:4047000000000000BC420000C8420000D4420000E0420000EC420000F842000004430000104300001C4300002843000078430000344300003C4300002043000030430000E6
:40474000444300002C4300004C430000A0430000544300005C430000644300005843000070430000C04200006C430000744300007C43000014430000C4420000F0420000F0
:4047800084430000E44200008C430000944300009C430000E083FF1F0000E02EC05D00001800000000366E0101FFFF0000000000000000000000000000000000000000001F
:4047C000000000000000000000000000C8450000000000000000000000000000000000000000000000000000000000000000000000000000000000000000000000000000AC
:404800000000000000000000000000007481FF1FCA450000000000000000000000000000000000000000000000000000000000000000000000000000000000000000000056
:404840000000000000000000000000000000000000000000000000000000000000000000000000000000000000000000000000000000000000000000000000000000000038
:4048800000000000000000000000000000000000000000000000000000000000000000000000000000000000000000000000000000000000000000000000000000000000F8
:4048C00000000000000000000000000000000000000000000000000000000000000000000000000000000000000000000000000000000000000000000000000000000000B8
:404900000000000000000000000000000000000000000000000000000000000000000000000000000000000000000000000000000000000000000000000000000000000077
:020000040003F7
:0200000480007A
:4000000001450040044F00400452004004650040010301406708014038090140020D0140040E0140030F0140021501404C160140271701405018014044190140441A01409B
:400040004E1B0140024001400641014006420140014301400444014002460140014701400B48014003490140054C0140054D01400550014001510140620201800A4B0D80EC
:40008000164B09100C0478067904870F8838890F8B72EE0C092A0B440D800E060F1512011308140615731601170C1A021E0321732304260529032B043330350F360737C02C
:4000C00039883A803B203F044002450449FF4A074BFF4C404D204EF04F055008580459045A045C225D025F01604061A862406320802C8110821183608414852087108A0360
:400100008B088E208F039009921095709620981099709F0CA101A30EA430A501A60CA706A81CA90CAA22AB03AD40AF10B170B21FB30FB620BB08BE40C025C101C50BC6E067
:40014000C70CC819C9FFCAFFCBFFCEF0CF44D00CD804D904DA04DC22DD02DF01E6C0EA40EB02009001080380070109080AA00B040E010F9413181708181019801E011F8049
:400180002101231024042680272929042AA02B802F8432C0332835043709382039023A043B403E203FD040044380472049084B404C104F0451085220530454405740891019
:4001C0008A80C08FC2FEC426CAAFCCCECE3FD02CD208AA80AE8039823F4159045F01204022808C40AF80EC800E011E011F012701310136014010410649FF4AFF4BFF4DA00F
:400200004F045018580459045A045C115D015F01604062C06440654066C068C06AC06CC06EC084028F08930197029B049C019F02A201A602B108B302B402B504B601B70126
:40024000BF04C010C106C5D5C601C702C817C9FFCAFFCBFFCDAFCE0FCF04D018D280D407D804D904DA04DB04DC11DD11DF01E040E2C0E440E540E6C0E8C0EAC0ECC0EEC0F1
:40028000000804800A020D8010A019501F8020082180228527802C203020318232083680388041804580482049014A084E0850C0520859515A0871028380C084C281C40C30
:4002C000CA40CC1FCE08D018D224D60FE60805010B040C010D01130117021801240127022B042F01300133023501370439203A203F444054410242064401450E46C0480944
:4003000049FF4AFF4BFF4C624DA04EF04F41500C54185604580459045A045B045C225D225F016640670269106A306B106D106E106F12816083048560880189428B098D6049
:4003400093609521971A9F60A360A402A503A903B001B160B202B310B503B70CBE05BF40D401D804D904DB04DC20DD20DF0100100402064007010F081220141019041B0260
:400380001C041D021E041F0121902350240225082704281029022B2C2C212D202F04300831023280350236023704380439723D403E043F20420C458A46284A014B404C20FA
:4003C0004D604E015710580259845A205E0266628602901091029220952099809E04A220A728C082C240C424CA77CCCBCE7FD0B0D230D68FD8B0000C0203040F0508080258
:400400000B040C030D100E0C100F111C1302140315181D1C1E031F012001210723182404251F280C2B032C082D04311F360F3A803B02580459045C225F01800D81018202DB
:400440008306840C88048C088D04910693019502980F99069C039D069E0C9F01A00FA507AA02AF01B001B107B20EBB02BE01D602D710D804D904DB04DC22DD20DF0100048C
:4004800001900280060107A809010B220C100E051140120113291408150219801A031B801E401F0421012501260227C0281029102A802B802E042F013001310433403401DB
:4004C00037A839403A043B103D403E015E406F29750476057728780179027A808008811083019004911092049333960297089A809C019F01A682A728A802AA20AB02B10122
:40050000B310B408B684B701C0FFC2CDC45FCA5FCCFBCE9ED610E804EC803380CC109302A301A780AB01AF01EE30630267029302A301A780D6C0A7807C208C20DE01E002E2
:400540004640D0019E40270857205F2083208780A780C820D440D620E280E610AF20B308EE10020262019E40C002D802AA01B240B602EC01EE0800040C0410061A021C04FF
:40058000000300006300006363000000800000003C003C0000000000000000000100000706000600280000001000041B1B00100000000000007F7F0000000000E00000E0C3
:4005C0001A000000000000002500180100000000000000000000000000000000000000000000000000000000000000000000000000000000000000000000000000000000A3
:4006000000000000000000000000000000000000000000000000000000000000000000000000000000000000000000000000000000000000000000000000000000000000BA
:40064000000000000000000000000000000000000000000000000000000000000000000000000000000000000000000000000000000000000000000000000000000000007A
:40068000000000000000000000000000000000000000000000000000000000000000000000000000000000000000000000000000000000000000000000000000000000003A
:4006C00000000000000000000000000000000000000000000000000000000000000000000000000000000000000000000000000000000000000000000000000000000000FA
:0200000490006A
:0400000000004005B7
:0200000490105A
:04000000BC90ACAF55
:0200000490303A
:02000000EF9F70
:0200000490402A
:4000000000000000000000000000000000000000000000000000000000000000000000000000000000000000000000000000000000000000000000000000000000000000C0
:400040000000000000000000000000000000000000000000000000000000000000000000000000000000000000000000000000000000000000000000000000000000000080
:400080000000000000000000000000000000000000000000000000000000000000000000000000000000000000000000000000000000000000000000000000000000000040
:4000C0000000000000000000000000000000000000000000000000000000000000000000000000000000000000000000000000000000000000000000000000000000000000
:0200000490501A
:0C00000000012E16106900012E330008CC
:00000001FF